:100000000C942A000C9447000C9447000C94470071
:100010000C9447000C9447000C9447000C94470044
:100020000C9447000C9447000C9447000C94470034
:100030000C9447000C9447000C9447000C94470024
:100040000C9447000C9447000C9447000C94470014
:100050000C94470011241FBECFE5D8E0DEBFCDBF12
:1000600011E0A0E6B0E0E4EFF1E402C005900D92EB
:10007000A635B107D9F711E0A6E5B1E001C01D92A0
:10008000AA35B107E1F70E9473200C94F8200C9474
:100090000000EF92FF920F931F937B018C0120E0F1
:1000A00030E040E05FE40E94F50388238CF0C80153
:1000B000B70120E030E040E05FE40E94C1010E940F
:1000C00055049B01AC01205030404040504806C0D0
:1000D000C801B7010E9455049B01AC01B901CA01D6
:1000E0001F910F91FF90EF900895A0E0B0E0EBE733
:1000F000F0E00C947C20DC012B01FA019C91923001
:1001000008F439C1EB018881823008F433C194309E
:1001100069F4843009F02FC111969C91119789815F
:10012000981709F428C1ADE4B1E025C1843009F481
:1001300021C18230A9F4923009F01DC19A01AD01AC
:1001400088E0EA010990AE01E90109929E0181501F
:10015000C1F7E201898111969C918923818308C1AD
:10016000923009F407C112962D903C901397EB0141
:100170008A819B811496AD90BD90CD90DC901797AD
:10018000EC80FD800E811F819101281B390BB90184
:1001900037FF04C066277727621B730B6032710537
:1001A0000CF061C0121613066CF537014801062EDB
:1001B00004C096948794779467940A94D2F721E0C8
:1001C00030E040E050E004C0220F331F441F551FB1
:1001D0006A95D2F721503040404050402E213F21B7
:1001E00040235123211531054105510521F021E01E
:1001F00030E040E050E079018A01E628F72808293C
:1002000019293CC0232BD1F1260E371E350146019A
:10021000062E04C096948794779467940A94D2F734
:1002200021E030E040E050E004C0220F331F441FC3
:10023000551F6A95D2F721503040404050402A2146
:100240003B214C215D21211531054105510521F04E
:1002500021E030E040E050E059016A01A628B728CB
:10026000C828D9280BC0821593052CF01C01AA249C
:10027000BB24650103C0EE24FF24870111969C91E5
:10028000D20111968C91981709F445C0992339F041
:10029000A80197012A193B094C095D0906C0A6016E
:1002A00095012E193F09400B510B57FD08C01182D3
:1002B0003382228224833583468357831DC081E0A5
:1002C00081833382228288279927DC01821B930B4A
:1002D000A40BB50B84839583A683B7830DC0220F2F
:1002E000331F441F551F24833583468357838281E0
:1002F000938101979383828324813581468157813D
:10030000DA01C9010197A109B1098F5F9F4FAF4F72
:10031000BF4328F30BC0918333822282EA0CFB1C7B
:100320000C1D1D1DE482F5820683178383E0808304
:10033000248135814681578157FF1AC0C901AA27F8
:1003400097FDA095BA2F81709070A070B0705695EF
:10035000479537952795822B932BA42BB52B848318
:100360009583A683B7838281938101969383828349
:10037000DF0101C0D201CD01CDB7DEB7E2E10C94BF
:100380009820A0E2B0E0E7ECF1E00C9488206983CB
:100390007A838B839C832D833E834F835887E9E048
:1003A000EE2EF12CEC0EFD1ECE010196B7010E943F
:1003B0007E058E010F5E1F4FCE010596B8010E948B
:1003C0007E058A8991E089278A8BC701B801AE0131
:1003D000475E5F4F0E9475000E94A904A096E6E068
:1003E0000C94A420A0E2B0E0E8EFF1E00C948820A7
:1003F00069837A838B839C832D833E834F835887C5
:10040000F9E0EF2EF12CEC0EFD1ECE010196B701A6
:100410000E947E058E010F5E1F4FCE010596B8012A
:100420000E947E05C701B801AE01475E5F4F0E9482
:1004300075000E94A904A096E6E00C94A420A0E216
:10044000B0E0E5E2F2E00C947C2069837A838B8350
:100450009C832D833E834F835887CE010196BE0136
:10046000675F7F4F0E947E05CE010596BE016F5EDD
:100470007F4F0E947E059985923088F0898982306D
:10048000C8F0943019F4823051F404C0843029F457
:10049000923081F48DE491E0C6C0923049F420E0BE
:1004A0009A858A89981321E02A87CE010996BBC0D4
:1004B000823049F420E09A858A89981321E02A8BBA
:1004C000CE014196B0C02D843E844F8458886D88FB
:1004D0007E888F88988CEE24FF248701AA24BB2471
:1004E000650140E050E060E070E0E0E0F0E0C10174
:1004F00081709070892BE9F0E60CF71C081D191D1E
:100500009A01AB012A0D3B1D4C1D5D1D80E090E062
:10051000A0E0B0E0E614F7040805190520F481E036
:1005200090E0A0E0B0E0BA01A901480F591F6A1F8E
:100530007B1FAA0CBB1CCC1CDD1C97FE08C081E0F5
:1005400090E0A0E0B0E0A82AB92ACA2ADB2A3196B6
:10055000E032F10549F0660C771C881C991C569412
:10056000479437942794C3CFFA85EA892B893C892D
:100570008B859C85280F391F2E5F3F4F17C0CA01FE
:1005800081709070892B61F016950795F794E79428
:1005900080E090E0A0E0B0E8E82AF92A0A2B1B2BC3
:1005A00076956795579547952F5F3F4F77FDE7CF36
:1005B0000CC0440F551F661F771F17FD4160EE0CDE
:1005C000FF1C001F111F21503040403090E05907A0
:1005D00090E0690790E4790760F32B8F3C8FDB0193
:1005E000CA018F779070A070B07080349105A1051A
:1005F000B10561F447FD0AC0E114F10401051105DC
:1006000029F0405C5F4F6F4F7F4F40781A8EFE1786
:1006100011F081E08A8F4D8F5E8F6F8F78A383E01A
:10062000898FCE0149960E94A904A096E2E10C941C
:100630009820A8E1B0E0EFE1F3E00C948420698316
:100640007A838B839C832D833E834F835887B9E0C5
:10065000EB2EF12CEC0EFD1ECE010196B7010E948F
:100660007E058E010F5E1F4FCE010596B8010E94D8
:100670007E052985223008F47EC03989323010F495
:10068000B8017CC08A859A8989278A87243011F02D
:10069000223031F4231709F06EC06DE471E06EC0B2
:1006A000343039F41D861E861F86188A1C861B86E8
:1006B00004C0323021F484E08987B7015FC02B8504
:1006C0003C858B899C89281B390B3C872B87ED84C3
:1006D000FE840F851889AD88BE88CF88D88CEA142F
:1006E000FB040C051D0540F4EE0CFF1C001F111F40
:1006F000215030403C872B8720E030E040E050E044
:1007000080E090E0A0E0B0E460E070E0EA14FB0478
:100710000C051D0540F0282B392B4A2B5B2BEA18C2
:10072000FB080C091D09B695A79597958795EE0CC2
:10073000FF1C001F111F6F5F7F4F6F31710531F775
:10074000DA01C9018F779070A070B0708034910584
:10075000A105B10561F427FD0AC0E114F10401050A
:10076000110529F0205C3F4F4F4F5F4F20782D87B8
:100770003E874F87588BBE01675F7F4FCB010E943A
:10078000A9046896EAE00C94A020A8E1B0E0EBECA4
:10079000F3E00C94882069837A838B839C832D8378
:1007A0003E834F83588789E0E82EF12CEC0EFD1E26
:1007B000CE010196B7010E947E058E010F5E1F4F8C
:1007C000CE010596B8010E947E058985823040F0F1
:1007D0008989823028F0C701B8010E94F60501C05E
:1007E0008FEF6896E6E00C94A420A8E1B0E0EBEF70
:1007F000F3E00C94882069837A838B839C832D8318
:100800003E834F83588789E0E82EF12CEC0EFD1EC5
:10081000CE010196B7010E947E058E010F5E1F4F2B
:10082000CE010596B8010E947E058985823040F090
:100830008989823028F0C701B8010E94F60501C0FD
:100840008FEF6896E6E00C94A420A8E1B0E0EBE21C
:10085000F4E00C94882069837A838B839C832D83B6
:100860003E834F83588789E0E82EF12CEC0EFD1E65
:10087000CE010196B7010E947E058E010F5E1F4FCB
:10088000CE010596B8010E947E058985823040F030
:100890008989823028F0C701B8010E94F60501C09D
:1008A00081E06896E6E00C94A420ACE0B0E0EBE5D3
:1008B000F4E00C948C2069837A838B839C83CE0133
:1008C0000196BE016B5F7F4F0E947E058D81823055
:1008D00061F1823050F1843021F48E81882351F10E
:1008E0002EC02F81388537FD20C06E812F31310514
:1008F0001CF06623F9F023C08EE190E0821B930B7D
:1009000029853A854B855C8504C056954795379572
:1009100027958A95D2F76623B1F05095409530958A
:1009200021953F4F4F4F5F4F0EC020E030E040E039
:1009300050E009C02FEF3FEF4FEF5FE704C020E02A
:1009400030E040E050E8B901CA012C96E2E00C9496
:10095000A820DF92EF92FF920F931F93FC01E48097
:10096000F58006811781D1808081823048F480E053
:1009700090E0A0E1B0E0E82AF92A0A2B1B2BA5C0E1
:10098000843009F49FC0823021F4EE24FF248701D3
:1009900005C0E114F1040105110519F4E0E0F0E0EF
:1009A00096C0628173819FEF623879070CF05BC05B
:1009B00022E83FEF261B370B2A3131052CF020E0CF
:1009C00030E040E050E02AC0B801A701022E04C088
:1009D00076956795579547950A94D2F781E090E010
:1009E000A0E0B0E004C0880F991FAA1FBB1F2A9582
:1009F000D2F70197A109B1098E219F21A023B1232C
:100A00000097A105B10521F081E090E0A0E0B0E001
:100A10009A01AB01282B392B4A2B5B2BDA01C90138
:100A20008F779070A070B07080349105A105B105EA
:100A300039F427FF09C0205C3F4F4F4F5F4F04C080
:100A4000215C3F4F4F4F5F4FE0E0F0E02030A0E0EF
:100A50003A07A0E04A07A0E45A0710F0E1E0F0E00E
:100A600079018A0127C06038710564F5FB01E158FE
:100A7000FF4FD801C7018F779070A070B07080349D
:100A80009105A105B10539F4E7FE0DC080E490E0C1
:100A9000A0E0B0E004C08FE390E0A0E0B0E0E80E9A
:100AA000F91E0A1F1B1F17FF05C016950795F7941F
:100AB000E794319687E016950795F794E7948A9521
:100AC000D1F705C0EE24FF248701EFEFF0E06E2F91
:100AD000679566276795902F9F77D794DD24D794E5
:100AE0008E2F8695492F462B582F5D29B701CA01B5
:100AF0001F910F91FF90EF90DF900895FC01DB01B3
:100B0000408151812281622F6F7770E0221F22275E
:100B1000221F9381892F880F822B282F30E0991F65
:100B20009927991F11969C93119721153105A9F5C5
:100B3000411551056105710511F482E037C082E865
:100B40009FEF13969C938E9312979A01AB0167E0E7
:100B5000220F331F441F551F6A95D1F783E08C93F2
:100B60000DC0220F331F441F551F12968D919C916B
:100B70001397019713969C938E931297203080E0E1
:100B8000380780E0480780E4580758F314962D93FF
:100B90003D934D935C93179708952F3F310579F45A
:100BA000411551056105710519F484E08C93089590
:100BB00064FF03C081E08C9312C01C9210C02F57B9
:100BC000304013963C932E93129783E08C9387E0EA
:100BD000440F551F661F771F8A95D1F770641496CE
:100BE0004D935D936D937C93179708951F93DC014C
:100BF000FB019C91923008F447C08081823008F458
:100C000043C0943051F411961C91843099F5818140
:100C1000682F70E0611B71093FC0843021F0923071
:100C200031F48230B9F18181882389F12DC0119688
:100C30001C9111978230F1F081811817D9F4129626
:100C40002D913C911397828193818217930794F0A1
:100C500028173907BCF014968D919D910D90BC9189
:100C6000A02D2481358146815781281739074A07ED
:100C70005B0718F4112341F00AC082179307A407F9
:100C8000B50740F4112319F061E070E005C06FEF83
:100C90007FEF02C060E070E0CB011F910895DF9309
:100CA000CF9300D000D00F92CDB7DEB789836A838F
:100CB0004B838981282F30E03D832C838C819D815B
:100CC0008130910509F447C02C813D8122303105E6
:100CD0002CF48C819D81009771F0CBC02C813D81DB
:100CE0002230310509F467C08C819D8183309105E4
:100CF00009F491C0BEC08B818823A9F4AAE3B0E0B7
:100D0000EAE3F0E08081482F8A81282F30E081E0FB
:100D100090E0022E02C0880F991F0A94E2F7809596
:100D200084238C93A6C08B81813009F0A2C0AAE3F2
:100D3000B0E0EAE3F0E08081482F8A81282F30E09C
:100D400081E090E0022E02C0880F991F0A94E2F71A
:100D5000842B8C938EC08B818823A9F4A7E3B0E009
:100D6000E7E3F0E08081482F8A81282F30E081E09E
:100D700090E0022E02C0880F991F0A94E2F7809536
:100D800084238C9376C08B81813009F072C0A7E3F5
:100D9000B0E0E7E3F0E08081482F8A81282F30E03F
:100DA00081E090E0022E02C0880F991F0A94E2F7BA
:100DB000842B8C935EC08B818823A9F4A4E3B0E0DC
:100DC000E4E3F0E08081482F8A81282F30E081E041
:100DD00090E0022E02C0880F991F0A94E2F78095D6
:100DE00084238C9346C08B81813009F042C0A4E3F8
:100DF000B0E0E4E3F0E08081482F8A81282F30E0E2
:100E000081E090E0022E02C0880F991F0A94E2F759
:100E1000842B8C932EC08B818823A9F4A1E3B0E0AE
:100E2000E1E3F0E08081482F8A81282F30E081E0E3
:100E300090E0022E02C0880F991F0A94E2F7809575
:100E400084238C9316C08B81813099F4A1E3B0E0A8
:100E5000E1E3F0E08081482F8A81282F30E081E0B3
:100E600090E0022E02C0880F991F0A94E2F7842BAB
:100E70008C930F900F900F900F900F90CF91DF9168
:100E80000895DF93CF9300D000D00F92CDB7DEB797
:100E900089836A834B838981282F30E03D832C83AB
:100EA0008C819D818130910509F447C02C813D8161
:100EB000223031052CF48C819D81009771F0CBC0DC
:100EC0002C813D812230310509F467C08C819D81E0
:100ED0008330910509F491C0BEC08B818823A9F4A9
:100EE000ABE3B0E0EBE3F0E08081482F8A81282F6C
:100EF00030E081E090E0022E02C0880F991F0A9432
:100F0000E2F7809584238C93A6C08B81813009F011
:100F1000A2C0ABE3B0E0EBE3F0E08081482F8A8130
:100F2000282F30E081E090E0022E02C0880F991F48
:100F30000A94E2F7842B8C938EC08B818823A9F4CA
:100F4000A8E3B0E0E8E3F0E08081482F8A81282F11
:100F500030E081E090E0022E02C0880F991F0A94D1
:100F6000E2F7809584238C9376C08B81813009F0E1
:100F700072C0A8E3B0E0E8E3F0E08081482F8A8106
:100F8000282F30E081E090E0022E02C0880F991FE8
:100F90000A94E2F7842B8C935EC08B818823A9F49A
:100FA000A5E3B0E0E5E3F0E08081482F8A81282FB7
:100FB00030E081E090E0022E02C0880F991F0A9471
:100FC000E2F7809584238C9346C08B81813009F0B1
:100FD00042C0A5E3B0E0E5E3F0E08081482F8A81DC
:100FE000282F30E081E090E0022E02C0880F991F88
:100FF0000A94E2F7842B8C932EC08B818823A9F46A
:10100000A2E3B0E0E2E3F0E08081482F8A81282F5C
:1010100030E081E090E0022E02C0880F991F0A9410
:10102000E2F7809584238C9316C08B81813099F4EC
:10103000A2E3B0E0E2E3F0E08081482F8A81282F2C
:1010400030E081E090E0022E02C0880F991F0A94E0
:10105000E2F7842B8C930F900F900F900F900F90CE
:10106000CF91DF910895DF93CF9300D000D00F92FE
:10107000CDB7DEB78A836B8319828A81282F30E04F
:101080003D832C834C815D814130510541F18C8140
:101090009D818230910534F42C813D8121153105EB
:1010A00061F052C04C815D814230510551F18C811B
:1010B0009D8183309105B9F147C0E9E3F0E080817B
:1010C000282F30E08B81882F90E0A90102C0559530
:1010D00047958A95E2F7CA018170898335C0E6E3B6
:1010E000F0E08081282F30E08B81882F90E0A901EB
:1010F00002C0559547958A95E2F7CA0181708983A8
:1011000023C0E3E3F0E08081282F30E08B81882F3B
:1011100090E0A90102C0559547958A95E2F7CA016A
:101120008170898311C0E0E3F0E08081282F30E0F6
:101130008B81882F90E0A90102C0559547958A952B
:10114000E2F7CA018170898389810F900F900F9017
:101150000F900F90CF91DF910895DF93CF9300D040
:1011600000D0CDB7DEB789836A838981282F30E02C
:101170003C832B838B819C818130910521F12B81D4
:101180003C81223031052CF48B819C81009761F0E9
:1011900046C02B813C812230310521F18B819C811D
:1011A0008330910571F13BC08A81882321F4EAE301
:1011B000F0E0108234C08A81813089F5EAE3F0E002
:1011C0008FEF80832CC08A81882321F4E7E3F0E04D
:1011D000108225C08A81813011F5E7E3F0E08FEFBE
:1011E00080831DC08A81882321F4E4E3F0E010822B
:1011F00016C08A81813099F4E4E3F0E08FEF8083B8
:101200000EC08A81882321F4E1E3F0E0108207C058
:101210008A81813021F4E1E3F0E08FEF80830F9049
:101220000F900F900F90CF91DF910895DF93CF93A0
:1012300000D000D0CDB7DEB789836A838981282F9B
:1012400030E03C832B838B819C818130910521F19F
:101250002B813C81223031052CF48B819C810097BD
:1012600061F046C02B813C812230310521F18B8118
:101270009C818330910571F13BC08A81882321F4E0
:10128000EBE3F0E0108234C08A81813089F5EBE332
:10129000F0E08FEF80832CC08A81882321F4E8E37B
:1012A000F0E0108225C08A81813011F5E8E3F0E09A
:1012B0008FEF80831DC08A81882321F4E5E3F0E06D
:1012C000108216C08A81813099F4E5E3F0E08FEF57
:1012D00080830EC08A81882321F4E2E3F0E010824B
:1012E00007C08A81813021F4E2E3F0E08FEF808350
:1012F0000F900F900F900F90CF91DF910895DF9393
:10130000CF9300D000D0CDB7DEB78A8319828A810F
:10131000282F30E03C832B838B819C818130910589
:10132000D1F02B813C81223031052CF48B819C81C2
:10133000009761F01EC02B813C812230310581F085
:101340008B819C818330910581F013C0E9E3F0E04B
:10135000808189830EC0E6E3F0E08081898309C043
:10136000E3E3F0E08081898304C0E0E3F0E0808182
:10137000898389810F900F900F900F90CF91DF910B
:101380000895DF93CF93CDB7DEB76C970FB6F8947F
:10139000DEBF0FBECDBF80E061E041E00E944F069E
:1013A00080E062E041E00E944F0680E090E0A0EA29
:1013B000B1E4898F9A8FAB8FBC8F698D7A8D8B8DBD
:1013C0009C8D20E030E04AE755E40E941F02DC01DA
:1013D000CB018D8B9E8BAF8BB88F6D897E898F896A
:1013E000988D20E030E040E85FE30E9425048823E8
:1013F0002CF481E090E09C8B8B8B3FC06D897E89C3
:101400008F89988D20E03FEF4FE757E40E94C50396
:1014100018164CF5698D7A8D8B8D9C8D20E030E00F
:1014200040E251E40E941F02DC01CB01BC01CD016E
:101430000E944900DC01CB019C8B8B8B0FC080E9A3
:1014400091E09A8B898B89899A890197F1F79A8B18
:10145000898B8B899C8901979C8B8B8B8B899C8931
:10146000009769F714C06D897E898F89988D0E94D5
:101470004900DC01CB019C8B8B8B8B899C89988BE1
:101480008F878F8598890197F1F7988B8F8780E0F8
:1014900063E041E00E944F0680E064E041E00E948A
:1014A0004F0680E065E041E00E944F0680E066E084
:1014B00041E00E944F0680E090E0A0EAB1E48B8713
:1014C0009C87AD87BE876B857C858D859E8520E05A
:1014D00030E04AE755E40E941F02DC01CB018F8314
:1014E0009887A987BA876F81788589859A8520E052
:1014F00030E040E85FE30E94250488232CF481E07B
:1015000090E09E838D833FC06F81788589859A8521
:1015100020E03FEF4FE757E40E94C50318164CF553
:101520006B857C858D859E8520E030E040E251E42E
:101530000E941F02DC01CB01BC01CD010E944900C9
:10154000DC01CB019E838D830FC080E991E09C83F9
:101550008B838B819C810197F1F79C838B838D8199
:101560009E8101979E838D838D819E81009769F76F
:1015700014C06F81788589859A850E944900DC01B5
:10158000CB019E838D838D819E819A8389838981FE
:101590009A810197F1F79A83898383E30E94E50A90
:1015A00082E30E94E50A88E20E94E50A8CE00E943C
:1015B000E50A81E00E94E50A6C960FB6F894DEBF5A
:1015C0000FBECDBFCF91DF9108950F931F93DF938F
:1015D000CF93CDB7DEB7C559D0400FB6F894DEBF74
:1015E0000FBECDBFFE01EB56FF4F808380E061E070
:1015F00040E00E944107FE01EF56FF4F80E090E07F
:10160000A0E8BFE380839183A283B3838E01035755
:101610001F4FFE01EF56FF4F6081718182819381E0
:101620002BEA3AEA4AEA50E40E941F02DC01CB01AD
:10163000F80180839183A283B383FE01E357FF4FB8
:10164000608171818281938120E030E040E85FE336
:101650000E942504882334F4FE01E457FF4F81E003
:101660008083E0C0FE01E357FF4F6081718182817A
:10167000938120E030E04FE753E40E94C503181641
:101680000CF0C0C0FE01EF56FF4F60817181828176
:10169000938120E030E04AE754E40E941903DC0122
:1016A000CB01FE01E857FF4F80839183A283B38370
:1016B0008E010C571F4FFE01E857FF4F608171816B
:1016C0008281938120E030E04AE755E40E941F02C6
:1016D000DC01CB01F80180839183A283B383FE01F7
:1016E000EC57FF4F608171818281938120E030E06F
:1016F00040E85FE30E942504882344F4FE01EE578E
:10170000FF4F81E090E09183808364C0FE01EC573D
:10171000FF4F608171818281938120E03FEF4FE72D
:1017200057E40E94C50318160CF043C0FE01E857A9
:10173000FF4F608171818281938120E030E040E23F
:1017400051E40E941F02DC01CB018E010E571F4F96
:10175000BC01CD010E944900DC01CB01F80191835D
:1017600080831FC0FE01E058FF4F80E991E0918324
:101770008083FE01E058FF4F808191810197F1F74E
:10178000FE01E058FF4F91838083DE01AE57BF4FCB
:10179000FE01EE57FF4F80819181019711969C9336
:1017A0008E93FE01EE57FF4F808191810097D1F615
:1017B0004BC08E010E571F4FFE01EC57FF4F60814B
:1017C0007181828193810E944900DC01CB01F80183
:1017D00091838083DE01A258BF4FFE01EE57FF4F79
:1017E0008081918111969C938E93FE01E258FF4F68
:1017F000808191810197F1F7FE01E258FF4F9183BB
:10180000808322C08E0104571F4FFE01E357FF4F14
:1018100060817181828193810E944900DC01CB014A
:10182000F8018083DE01A358BF4FFE01E457FF4F4C
:1018300080818C93FE01E358FF4F80818A95F1F7F8
:10184000FE01E358FF4F808380E062E041E00E94A8
:101850004107FE01E758FF4F80E090E0A0E8BFE3BA
:1018600080839183A283B3838E010B581F4FFE01A7
:10187000E758FF4F60817181828193812BEA3AEAB8
:101880004AEA50E40E941F02DC01CB01F801808388
:101890009183A283B383FE01EB58FF4F6081718176
:1018A0008281938120E030E040E85FE30E942504DC
:1018B000882334F4FE01EC58FF4F81E08083E0C0C0
:1018C000FE01EB58FF4F608171818281938120E09E
:1018D00030E04FE753E40E94C50318160CF0C0C077
:1018E000FE01E758FF4F608171818281938120E082
:1018F00030E04AE754E40E941903DC01CB01FE0109
:10190000E059FF4F80839183A283B3838E010459F2
:101910001F4FFE01E059FF4F6081718182819381E9
:1019200020E030E04AE755E40E941F02DC01CB01D1
:10193000F80180839183A283B383FE01E459FF4FB2
:10194000608171818281938120E030E040E85FE333
:101950000E942504882344F4FE01E659FF4F81E0EC
:1019600090E09183808364C0FE01E459FF4F608161
:1019700071818281938120E03FEF4FE757E40E941D
:10198000C50318160CF043C0FE01E059FF4F6081FB
:1019900071818281938120E030E040E251E40E9435
:1019A0001F02DC01CB018E0106591F4FBC01CD0186
:1019B0000E944900DC01CB01F801918380831FC0A4
:1019C000FE01E859FF4F80E991E091838083FE0199
:1019D000E859FF4F808191810197F1F7FE01E859A5
:1019E000FF4F91838083DE01A659BF4FFE01E65968
:1019F000FF4F80819181019711969C938E93FE01F8
:101A0000E659FF4F808191810097D1F64BC08E013E
:101A100006591F4FFE01E459FF4F60817181828199
:101A200093810E944900DC01CB01F80191838083FE
:101A3000DE01AA59BF4FFE01E659FF4F8081918117
:101A400011969C938E93FE01EA59FF4F80819181FC
:101A50000197F1F7FE01EA59FF4F9183808322C07D
:101A60008E010C581F4FFE01EB58FF4F60817181B2
:101A7000828193810E944900DC01CB01F8018083BF
:101A8000DE01AB59BF4FFE01EC58FF4F80818C93B4
:101A9000FE01EB59FF4F80818A95F1F7FE01EB596A
:101AA000FF4F8083FE01EB56FF4F808182958F7040
:101AB000982F917080E063E0492F0E944107FE015A
:101AC000EB56FF4F8081829586958770982F917095
:101AD00080E064E0492F0E944107FE01EB56FF4F72
:101AE00080818295869586958370982F917080E08D
:101AF00065E0492F0E944107FE01EB56FF4F8081B0
:101B0000982F991F9927991F80E066E0492F0E941E
:101B10004107FE01EF59FF4F80E090E0A0E8BFE3EE
:101B200080839183A283B3838E01035A1F4FFE01EA
:101B3000EF59FF4F608171818281938120E030E015
:101B40004AE755E40E941F02DC01CB01F8018083C3
:101B50009183A283B383FE01E35AFF4F60817181B9
:101B60008281938120E030E040E85FE30E94250419
:101B7000882344F4FE01E55AFF4F81E090E0918311
:101B8000808364C0FE01E35AFF4F608171818281CE
:101B9000938120E03FEF4FE757E40E94C5031816FA
:101BA0000CF043C0FE01EF59FF4F608171818281CB
:101BB000938120E030E040E251E40E941F02DC010A
:101BC000CB018E01055A1F4FBC01CD010E94490077
:101BD000DC01CB01F801918380831FC0FE01E75A2D
:101BE000FF4F80E991E091838083FE01E75AFF4F28
:101BF000808191810197F1F7FE01E75AFF4F9183B0
:101C00008083DE01A55ABF4FFE01E55AFF4F808158
:101C10009181019711969C938E93FE01E55AFF4F97
:101C2000808191810097D1F627C08E01055A1F4F00
:101C3000FE01E35AFF4F60817181828193810E948E
:101C40004900DC01CB01F80191838083DE01A95AB0
:101C5000BF4FFE01E55AFF4F808191818D939C9388
:101C6000FE01E95AFF4F808191810197F1F7FE0152
:101C7000E95AFF4F9183808380E062E040E00E9458
:101C80004107FE01ED5AFF4F80E090E0A0E8BFE37E
:101C900080839183A283B3838E01015B1F4FFE017A
:101CA000ED5AFF4F60817181828193812BEA3AEA7C
:101CB0004AEA50E40E941F02DC01CB01F801808354
:101CC0009183A283B383FE01E15BFF4F6081718149
:101CD0008281938120E030E040E85FE30E942504A8
:101CE000882334F4FE01E25BFF4F81E08083E0C093
:101CF000FE01E15BFF4F608171818281938120E071
:101D000030E04FE753E40E94C50318160CF0C0C042
:101D1000FE01ED5AFF4F608171818281938120E045
:101D200030E04AE754E40E941903DC01CB01FE01D4
:101D3000E65BFF4F80839183A283B3838E010A5BAE
:101D40001F4FFE01E65BFF4F6081718182819381AD
:101D500020E030E04AE755E40E941F02DC01CB019D
:101D6000F80180839183A283B383FE01EA5BFF4F76
:101D7000608171818281938120E030E040E85FE3FF
:101D80000E942504882344F4FE01EC5BFF4F81E0B0
:101D900090E09183808364C0FE01EA5BFF4F608125
:101DA00071818281938120E03FEF4FE757E40E94E9
:101DB000C50318160CF043C0FE01E65BFF4F6081BF
:101DC00071818281938120E030E040E251E40E9401
:101DD0001F02DC01CB018E010C5B1F4FBC01CD014A
:101DE0000E944900DC01CB01F801918380831FC070
:101DF000FE01EE5BFF4F80E991E091838083FE015D
:101E0000EE5BFF4F808191810197F1F7FE01EE5B60
:101E1000FF4F91838083DE01AC5BBF4FFE01EC5B23
:101E2000FF4F80819181019711969C938E93FE01C3
:101E3000EC5BFF4F808191810097D1F642C08E010B
:101E40000C5B1F4FFE01EA5BFF4F60817181828155
:101E500093810E944900DC01CB01F80191838083CA
:101E6000DE01A05CBF4FFE01EC5BFF4F80819181E2
:101E700011969C938E93FE01E05CFF4F80819181CF
:101E80000197F1F7FE01E05CFF4F9183808319C059
:101E90008E01025B1F4FFE01E15BFF4F608171818C
:101EA000828193810E944900DC01CB01F80180838B
:101EB000FE01E25BFF4F80818FAF8FAD8A95F1F716
:101EC0008FAF80E062E041E00E94410780E090E057
:101ED000A0E8BFE38BAF9CAFADAFBEAF6BAD7CAD49
:101EE0008DAD9EAD2BEA3AEA4AEA50E40E941F0209
:101EF000DC01CB018FAB98AFA9AFBAAF6FA978ADBA
:101F000089AD9AAD20E030E040E85FE30E9425040F
:101F100088231CF481E08EAB91C06FA978AD89ADA8
:101F20009AAD20E030E04FE753E40E94C503181655
:101F30000CF07BC06BAD7CAD8DAD9EAD20E030E094
:101F40004AE754E40E941903DC01CB018AAB9BAB46
:101F5000ACABBDAB6AA97BA98CA99DA920E030E000
:101F60004AE755E40E941F02DC01CB018EA79FA720
:101F7000A8ABB9AB6EA57FA588A999A920E030E0F0
:101F800040E85FE30E94250488232CF481E090E080
:101F90009DA78CA73FC06EA57FA588A999A920E021
:101FA0003FEF4FE757E40E94C50318164CF56AA9A6
:101FB0007BA98CA99DA920E030E040E251E40E9479
:101FC0001F02DC01CB01BC01CD010E944900DC01F4
:101FD000CB019DA78CA70FC080E991E09BA78AA7A2
:101FE0008AA59BA50197F1F79BA78AA78CA59DA51C
:101FF00001979DA78CA78CA59DA5009769F724C084
:102000006EA57FA588A999A90E944900DC01CB0192
:102010009DA78CA78CA59DA599A788A788A599A5FC
:102020000197F1F799A788A70FC06FA978AD89AD7F
:102030009AAD0E944900DC01CB018EAB8EA98FA323
:102040008FA18A95F1F78FA3FE01EB56FF4F808198
:10205000982F917080E063E0492F0E944107FE01B4
:10206000EB56FF4F80818695982F917080E064E059
:10207000492F0E944107FE01EB56FF4F8081869554
:102080008695982F917080E065E0492F0E94410766
:10209000FE01EB56FF4F8081869586958695982F99
:1020A000917080E066E0492F0E94410780E090E057
:1020B000A0E8BFE38BA39CA3ADA3BEA36BA17CA1AF
:1020C0008DA19EA120E030E04AE755E40E941F0266
:1020D000DC01CB018F8F98A3A9A3BAA36F8D78A140
:1020E00089A19AA120E030E040E85FE30E94250446
:1020F00088232CF481E090E09E8F8D8F3FC06F8D00
:1021000078A189A19AA120E03FEF4FE757E40E9410
:10211000C50318164CF56BA17CA18DA19EA120E0F2
:1021200030E040E251E40E941F02DC01CB01BC011F
:10213000CD010E944900DC01CB019E8F8D8F0FC025
:1021400080E991E09C8F8B8F8B8D9C8D0197F1F7AF
:102150009C8F8B8F8D8D9E8D01979E8F8D8F8D8DFA
:102160009E8D009769F714C06F8D78A189A19AA1FF
:102170000E944900DC01CB019E8F8D8F8D8D9E8D3D
:102180009A8F898F898D9A8D0197F1F79A8F898F10
:1021900080E062E040E00E94410780E090E0A0E83B
:1021A000BFE38D8B9E8BAF8BB88F6D897E898F89B6
:1021B000988D2BEA3AEA4AEA50E40E941F02DC01B9
:1021C000CB01898B9A8BAB8BBC8B69897A898B8984
:1021D0009C8920E030E040E85FE30E9425048823EA
:1021E0001CF481E0888B91C069897A898B899C89EC
:1021F00020E030E04FE753E40E94C50318160CF0CE
:102200007BC06D897E898F89988D20E030E04AE718
:1022100054E40E941903DC01CB018C879D87AE87B3
:10222000BF876C857D858E859F8520E030E04AE7FD
:1022300055E40E941F02DC01CB0188879987AA8799
:10224000BB87688579858A859B8520E030E040E8FA
:102250005FE30E94250488232CF481E090E09F83B3
:102260008E833FC0688579858A859B8520E03FEF16
:102270004FE757E40E94C50318164CF56C857D8521
:102280008E859F8520E030E040E251E40E941F02ED
:10229000DC01CB01BC01CD010E944900DC01CB0176
:1022A0009F838E830FC080E991E09D838C838C8116
:1022B0009D810197F1F79D838C838E819F8101978A
:1022C0009F838E838E819F81009769F724C06885E4
:1022D00079858A859B850E944900DC01CB019F831B
:1022E0008E838E819F819B838A838A819B810197C4
:1022F000F1F79B838A830FC069897A898B899C89CE
:102300000E944900DC01CB01888B888989838981FF
:102310008A95F1F78983CB56DF4F0FB6F894DEBF6D
:102320000FBECDBFCF91DF911F910F9108950F93F5
:102330001F93DF93CF93CDB7DEB7C158D0400FB610
:10234000F894DEBF0FBECDBFFE01EF57FF4F808375
:1023500080E061E041E00E944107FE01E358FF4F49
:1023600080E090E0A0E8BFE380839183A283B38301
:102370008E0107581F4FFE01E358FF4F60817181A6
:102380008281938120E030E04AE755E40E941F02F9
:10239000DC01CB01F80180839183A283B383FE012A
:1023A000E758FF4F608171818281938120E030E0A6
:1023B00040E85FE30E942504882344F4FE01E958C5
:1023C000FF4F81E090E09183808364C0FE01E75875
:1023D000FF4F608171818281938120E03FEF4FE761
:1023E00057E40E94C50318160CF043C0FE01E358E1
:1023F000FF4F608171818281938120E030E040E273
:1024000051E40E941F02DC01CB018E0109581F4FCD
:10241000BC01CD010E944900DC01CB01F801918390
:1024200080831FC0FE01EB58FF4F80E991E091834C
:102430008083FE01EB58FF4F808191810197F1F776
:10244000FE01EB58FF4F91838083DE01A958BF4FF7
:10245000FE01E958FF4F80819181019711969C936D
:102460008E93FE01E958FF4F808191810097D1F64C
:1024700027C08E0109581F4FFE01E758FF4F6081AA
:102480007181828193810E944900DC01CB01F801B6
:1024900091838083DE01AD58BF4FFE01E958FF4FA5
:1024A000808191818D939C93FE01ED58FF4F808137
:1024B00091810197F1F7FE01ED58FF4F91838083E1
:1024C00080E062E041E00E944107FE01E159FF4FD8
:1024D00080E090E0A0E8BFE380839183A283B38390
:1024E0008E0105591F4FFE01E159FF4F6081718137
:1024F0008281938120E030E04AE755E40E941F0288
:10250000DC01CB01F80180839183A283B383FE01B8
:10251000E559FF4F608171818281938120E030E035
:1025200040E85FE30E942504882344F4FE01E75954
:10253000FF4F81E090E09183808364C0FE01E55904
:10254000FF4F608171818281938120E03FEF4FE7EF
:1025500057E40E94C50318160CF043C0FE01E15970
:10256000FF4F608171818281938120E030E040E201
:1025700051E40E941F02DC01CB018E0107591F4F5D
:10258000BC01CD010E944900DC01CB01F80191831F
:1025900080831FC0FE01E959FF4F80E991E09183DC
:1025A0008083FE01E959FF4F808191810197F1F706
:1025B000FE01E959FF4F91838083DE01A759BF4F88
:1025C000FE01E759FF4F80819181019711969C93FD
:1025D0008E93FE01E759FF4F808191810097D1F6DC
:1025E00027C08E0107591F4FFE01E559FF4F60813B
:1025F0007181828193810E944900DC01CB01F80145
:1026000091838083DE01AB59BF4FFE01E759FF4F35
:10261000808191818D939C93FE01EB59FF4F8081C6
:1026200091810197F1F7FE01EB59FF4F9183808370
:10263000FE01EF57FF4F808182958F70982F917028
:1026400080E063E0492F0E944107FE01EF57FF4FF2
:102650008081829586958770982F917080E064E0E4
:10266000492F0E944107FE01EF57FF4F808182955D
:10267000869586958370982F917080E065E0492F4C
:102680000E944107FE01EF57FF4F8081982F991F4D
:102690009927991F80E066E0492F0E944107FE01BB
:1026A000EF59FF4F80E090E0A0E8BFE38083918383
:1026B000A283B3838E01035A1F4FFE01EF59FF4FD0
:1026C000608171818281938120E030E04AE755E4A6
:1026D0000E941F02DC01CB01F80180839183A28359
:1026E000B383FE01E35AFF4F608171818281938140
:1026F00020E030E040E85FE30E942504882344F4B2
:10270000FE01E55AFF4F81E090E09183808364C031
:10271000FE01E35AFF4F608171818281938120E045
:102720003FEF4FE757E40E94C50318160CF043C073
:10273000FE01EF59FF4F608171818281938120E01A
:1027400030E040E251E40E941F02DC01CB018E0127
:10275000055A1F4FBC01CD010E944900DC01CB018D
:10276000F801918380831FC0FE01E75AFF4F80E983
:1027700091E091838083FE01E75AFF4F8081918130
:102780000197F1F7FE01E75AFF4F91838083DE0145
:10279000A55ABF4FFE01E55AFF4F808191810197F5
:1027A00011969C938E93FE01E55AFF4F8081918193
:1027B0000097D1F627C08E01055A1F4FFE01E35A3C
:1027C000FF4F60817181828193810E944900DC0109
:1027D000CB01F80191838083DE01A95ABF4FFE012E
:1027E000E55AFF4F808191818D939C93FE01E95AB8
:1027F000FF4F808191810197F1F7FE01E95AFF4F68
:102800009183808380E062E040E00E944107FE0106
:10281000ED5AFF4F80E090E0A0E8BFE38083918312
:10282000A283B3838E01015B1F4FFE01ED5AFF4F60
:1028300060817181828193812BEA3AEA4AEA50E40D
:102840000E941F02DC01CB01F80180839183A283E7
:10285000B383FE01E15BFF4F6081718182819381CF
:1028600020E030E040E85FE30E942504882334F450
:10287000FE01E25BFF4F81E08083E0C0FE01E15B8F
:10288000FF4F608171818281938120E030E04FE7CA
:1028900053E40E94C50318160CF0C0C0FE01ED5AA7
:1028A000FF4F608171818281938120E030E04AE7AF
:1028B00054E40E941903DC01CB01FE01E65BFF4FEB
:1028C00080839183A283B3838E010A5B1F4FFE0135
:1028D000E65BFF4F608171818281938120E030E06F
:1028E0004AE755E40E941F02DC01CB01F801808316
:1028F0009183A283B383FE01EA5BFF4F6081718104
:102900008281938120E030E040E85FE30E9425046B
:10291000882344F4FE01EC5BFF4F81E090E091835B
:10292000808364C0FE01EA5BFF4F60817181828118
:10293000938120E03FEF4FE757E40E94C50318164C
:102940000CF043C0FE01E65BFF4F60817181828124
:10295000938120E030E040E251E40E941F02DC015C
:10296000CB018E010C5B1F4FBC01CD010E944900C1
:10297000DC01CB01F801918380831FC0FE01EE5B77
:10298000FF4F80E991E091838083FE01EE5BFF4F72
:10299000808191810197F1F7FE01EE5BFF4F9183FA
:1029A0008083DE01AC5BBF4FFE01EC5BFF4F80819B
:1029B0009181019711969C938E93FE01EC5BFF4FE2
:1029C000808191810097D1F642C08E010C5B1F4F30
:1029D000FE01EA5BFF4F60817181828193810E94D9
:1029E0004900DC01CB01F80191838083DE01A05C0A
:1029F000BF4FFE01EC5BFF4F8081918111969C934C
:102A00008E93FE01E05CFF4F808191810197F1F789
:102A1000FE01E05CFF4F9183808319C08E01025B51
:102A20001F4FFE01E15BFF4F6081718182819381C5
:102A30000E944900DC01CB01F8018083FE01E25BCA
:102A4000FF4F80818FAF8FAD8A95F1F78FAF80E018
:102A500062E041E00E94410780E090E0A0E8BFE32F
:102A60008BAF9CAFADAFBEAF6BAD7CAD8DAD9EAD52
:102A70002BEA3AEA4AEA50E40E941F02DC01CB0149
:102A80008FAB98AFA9AFBAAF6FA978AD89AD9AAD4A
:102A900020E030E040E85FE30E94250488231CF436
:102AA00081E08EAB91C06FA978AD89AD9AAD20E081
:102AB00030E04FE753E40E94C50318160CF07BC0CA
:102AC0006BAD7CAD8DAD9EAD20E030E04AE754E4C7
:102AD0000E941903DC01CB018AAB9BABACABBDAB55
:102AE0006AA97BA98CA99DA920E030E04AE755E4BA
:102AF0000E941F02DC01CB018EA79FA7A8ABB9AB38
:102B00006EA57FA588A999A920E030E040E85FE3A1
:102B10000E94250488232CF481E090E09DA78CA7D7
:102B20003FC06EA57FA588A999A920E03FEF4FE798
:102B300057E40E94C50318164CF56AA97BA98CA915
:102B40009DA920E030E040E251E40E941F02DC0138
:102B5000CB01BC01CD010E944900DC01CB019DA746
:102B60008CA70FC080E991E09BA78AA78AA59BA5A7
:102B70000197F1F79BA78AA78CA59DA501979DA713
:102B80008CA78CA59DA5009769F724C06EA57FA58D
:102B900088A999A90E944900DC01CB019DA78CA7B7
:102BA0008CA59DA599A788A788A599A50197F1F758
:102BB00099A788A70FC06FA978AD89AD9AAD0E947B
:102BC0004900DC01CB018EAB8EA98FA38FA18A9522
:102BD000F1F78FA3FE01EF57FF4F8081982F91707F
:102BE00080E063E0492F0E944107FE01EF57FF4F4D
:102BF00080818695982F917080E064E0492F0E9433
:102C00004107FE01EF57FF4F808186958695982FEB
:102C1000917080E065E0492F0E944107FE01EF5767
:102C2000FF4F8081869586958695982F917080E0DC
:102C300066E0492F0E94410780E090E0A0E8BFE3F2
:102C40008BA39CA3ADA3BEA36BA17CA18DA19EA1D0
:102C500020E030E04AE755E40E941F02DC01CB018E
:102C60008F8F98A3A9A3BAA36F8D78A189A19AA1E8
:102C700020E030E040E85FE30E94250488232CF444
:102C800081E090E09E8F8D8F3FC06F8D78A189A1EC
:102C90009AA120E03FEF4FE757E40E94C5031816C2
:102CA0004CF56BA17CA18DA19EA120E030E040E21B
:102CB00051E40E941F02DC01CB01BC01CD010E9446
:102CC0004900DC01CB019E8F8D8F0FC080E991E020
:102CD0009C8F8B8F8B8D9C8D0197F1F79C8F8B8FA9
:102CE0008D8D9E8D01979E8F8D8F8D8D9E8D0097E2
:102CF00069F714C06F8D78A189A19AA10E9449003B
:102D0000DC01CB019E8F8D8F8D8D9E8D9A8F898F4B
:102D1000898D9A8D0197F1F79A8F898F80E062E013
:102D200040E00E94410780E090E0A0E8BFE38D8B87
:102D30009E8BAF8BB88F6D897E898F89988D2BEA9A
:102D40003AEA4AEA50E40E941F02DC01CB01898B77
:102D50009A8BAB8BBC8B69897A898B899C8920E0A3
:102D600030E040E85FE30E94250488231CF481E002
:102D7000888B91C069897A898B899C8920E030E0B1
:102D80004FE753E40E94C50318160CF07BC06D8911
:102D90007E898F89988D20E030E04AE754E40E94D4
:102DA0001903DC01CB018C879D87AE87BF876C85BB
:102DB0007D858E859F8520E030E04AE755E40E94BE
:102DC0001F02DC01CB0188879987AA87BB876885AA
:102DD00079858A859B8520E030E040E85FE30E94AA
:102DE000250488232CF481E090E09F838E833FC0EC
:102DF000688579858A859B8520E03FEF4FE757E41A
:102E00000E94C50318164CF56C857D858E859F85BF
:102E100020E030E040E251E40E941F02DC01CB01DF
:102E2000BC01CD010E944900DC01CB019F838E8350
:102E30000FC080E991E09D838C838C819D810197F7
:102E4000F1F79D838C838E819F8101979F838E8371
:102E50008E819F81009769F724C0688579858A856E
:102E60009B850E944900DC01CB019F838E838E816C
:102E70009F819B838A838A819B810197F1F79B8342
:102E80008A830FC069897A898B899C890E9449004D
:102E9000DC01CB01888B8889898389818A95F1F748
:102EA0008983CF57DF4F0FB6F894DEBF0FBECDBF7B
:102EB000CF91DF911F910F910895DF93CF9300D0B1
:102EC0000F92CDB7DEB79B838A8319820EC08981AA
:102ED000282F30E08A819B81FC01E20FF31F808163
:102EE0000E94971189818F5F89838981282F30E023
:102EF0008A819B81FC01E20FF31F8081882339F7CF
:102F00000F900F900F90CF91DF910895DF93CF93A3
:102F1000CDB7DEB762970FB6F894DEBF0FBECDBF58
:102F20009A8B898B89899A899E012F5F3F4FB901BE
:102F30004AE050E00E94B320CE0101960E945D1746
:102F400062960FB6F894DEBF0FBECDBFCF91DF9172
:102F50000895DF93CF9300D000D00F92CDB7DEB7A6
:102F60008A836B838A81282F30E03D832C838C8178
:102F70009D8181309105C1F02C813D812230310548
:102F80002CF48C819D81009761F019C02C813D81CA
:102F90002230310569F08C819D818330910561F08B
:102FA0000EC08B8189830BC08B81805C898307C0B5
:102FB0008B81805F898303C08B81805C8983898159
:102FC00080680E94E50A0F900F900F900F900F906D
:102FD000CF91DF910895DF93CF9300D000D0CDB78C
:102FE000DEB789836A835C834B8389816A810E940F
:102FF000A9178B819C810E945D170F900F900F90F5
:103000000F90CF91DF910895DF93CF93CDB7DEB7C7
:1030100081E00E94E50ACF91DF910895DF93CF937D
:1030200000D0CDB7DEB781E064E040E00E944F06FB
:1030300081E065E040E00E944F0681E066E040E00C
:103040000E944F0681E067E040E00E944F0683E067
:1030500062E040E00E944F0683E063E040E00E94AF
:103060004F0683E064E040E00E944F0681E065E0A7
:1030700040E00E944F061A823CC08A81982F9C5FD4
:1030800081E0692F41E00E944F068A81982F9C5F62
:1030900081E0692F40E00E94410719821CC08981AC
:1030A000982F9E5F83E0692F0E943308882381F464
:1030B0008A81882F90E0880F991F880F991F982F79
:1030C0008981890F8F5F0F900F90CF91DF910895C5
:1030D00089818F5F89838981843008F38A81982F61
:1030E0009C5F81E0692F40E00E944F068A818F5FDC
:1030F0008A838A81843008F2BECFDF93CF93CDB725
:10310000DEB70E94C109CF91DF910895DF93CF937D
:10311000CDB7DEB72E970FB6F894DEBF0FBECDBF8A
:103120000E94041880E690E00E945D1721E730E0DD
:1031300081E060E0A9010E94EB1780E090E0AAE73F
:10314000B4E48B879C87AD87BE876B857C858D8536
:103150009E8520E030E04AE755E40E941F02DC0132
:10316000CB018F839887A987BA876F8178858985F6
:103170009A8520E030E040E85FE30E942504882340
:103180002CF481E090E09E838D833FC06F81788531
:1031900089859A8520E03FEF4FE757E40E94C503F9
:1031A00018164CF56B857C858D859E8520E030E07A
:1031B00040E251E40E941F02DC01CB01BC01CD01C1
:1031C0000E944900DC01CB019E838D830FC080E902
:1031D00091E09C838B838B819C810197F1F79C8389
:1031E0008B838D819E8101979E838D838D819E81AE
:1031F000009769F714C06F81788589859A850E9448
:103200004900DC01CB019E838D838D819E819A8351
:10321000898389819A810197F1F79A8389830E9432
:103220001A192E960FB6F894DEBF0FBECDBFCF9100
:10323000DF910895DF93CF93CDB7DEB7EA970FB64E
:10324000F894DEBF0FBECDBF0E94041821E830E025
:1032500080E060E0A9010E94EB1780E090E8ABEB12
:10326000B4E48DAB9EABAFABB8AF6DA97EA98FA90F
:1032700098AD20E030E04AE755E40E941F02DC01EF
:10328000CB0189AB9AABABABBCAB69A97AA98BA9D3
:103290009CA920E030E040E85FE30E9425048823F9
:1032A0002CF481E090E098AB8FA73FC069A97AA980
:1032B0008BA99CA920E03FEF4FE757E40E94C5038C
:1032C00018164CF56DA97EA98FA998AD20E030E0C5
:1032D00040E251E40E941F02DC01CB01BC01CD01A0
:1032E0000E944900DC01CB0198AB8FA70FC080E999
:1032F00091E09EA78DA78DA59EA50197F1F79EA7AA
:103300008DA78FA598A9019798AB8FA78FA598A98E
:10331000009769F714C069A97AA98BA99CA90E9492
:103320004900DC01CB0198AB8FA78FA598A99CA77A
:103330008BA78BA59CA50197F1F79CA78BA70E9453
:10334000041822E930E080E060E0A9010E94EB1758
:1033500026E930E080E064E0A9010E94EB172AE949
:1033600030E080E068E0A9010E94EB172EE930E030
:1033700080E06CE0A9010E94EB1722EA30E081E0D6
:1033800060E0A9010E94EB170E940E188AAF80E04E
:1033900090E0AAE7B4E48FA398A7A9A7BAA76FA162
:1033A00078A589A59AA520E030E04AE755E40E9477
:1033B0001F02DC01CB018BA39CA3ADA3BEA36BA119
:1033C0007CA18DA19EA120E030E040E85FE30E9457
:1033D000250488232CF481E090E09AA389A33FC0C0
:1033E0006BA17CA18DA19EA120E03FEF4FE757E4A8
:1033F0000E94C50318164CF56FA178A589A59AA55A
:1034000020E030E040E251E40E941F02DC01CB01E9
:10341000BC01CD010E944900DC01CB019AA389A324
:103420000FC080E991E098A38F8F8F8D98A10197AD
:10343000F1F798A38F8F89A19AA101979AA389A3E5
:1034400089A19AA1009769F714C06BA17CA18DA1F5
:103450009EA10E944900DC01CB019AA389A389A106
:103460009AA19E8F8D8F8D8D9E8D0197F1F79E8FE6
:103470008D8F8AAD813009F012C10E94041823EBB0
:1034800030E080E060E0A9010E94EB172EEB30E015
:1034900081E060E0A9010E94EB1780E090E0AAEFD4
:1034A000B4E4898F9A8FAB8FBC8F698D7A8D8B8DA9
:1034B0009C8D20E030E04AE755E40E941F02DC01C9
:1034C000CB018D8B9E8BAF8BB88F6D897E898F8959
:1034D000988D20E030E040E85FE30E9425048823D7
:1034E0002CF481E090E09C8B8B8B3FC06D897E89B2
:1034F0008F89988D20E03FEF4FE757E40E94C50386
:1035000018164CF5698D7A8D8B8D9C8D20E030E0FE
:1035100040E251E40E941F02DC01CB01BC01CD015D
:103520000E944900DC01CB019C8B8B8B0FC080E992
:1035300091E09A8B898B89899A890197F1F79A8B07
:10354000898B8B899C8901979C8B8B8B8B899C8920
:10355000009769F714C06D897E898F89988D0E94C4
:103560004900DC01CB019C8B8B8B8B899C89988BD0
:103570008F878F8598890197F1F7988B8F870E94A5
:10358000041828EC30E080E060E0A9010E94EB170D
:1035900027ED30E081E060E0A9010E94EB170E9476
:1035A0000E1889AF80E090E0AAE7B4E48B879C878F
:1035B000AD87BE876B857C858D859E8520E030E05C
:1035C0004AE755E40E941F02DC01CB018F839887F4
:1035D000A987BA876F81788589859A8520E030E050
:1035E00040E85FE30E94250488232CF481E090E00A
:1035F0009E838D833FC06F81788589859A8520E081
:103600003FEF4FE757E40E94C50318164CF56B8552
:103610007C858D859E8520E030E040E251E40E946B
:103620001F02DC01CB01BC01CD010E944900DC017D
:10363000CB019E838D830FC080E991E09C838B83B7
:103640008B819C810197F1F79C838B838D819E8177
:1036500001979E838D838D819E81009769F714C0A9
:103660006F81788589859A850E944900DC01CB01AC
:103670009E838D838D819E819A83898389819A819E
:103680000197F1F79A83898389AD893019F40E94F3
:10369000581B05C089AD863011F40E941A19EA96AC
:1036A0000FB6F894DEBF0FBECDBFCF91DF91089566
:1036B000DF93CF93CDB7DEB70E94041828EE30E039
:1036C00080E060E0A9010E94EB1780915601882FED
:1036D00090E00E9486172BEE30E080E068E0A901C0
:1036E0000E94EB1780915701882F90E00E94861767
:1036F0002EEE30E081E060E0A9010E94EB1780919E
:103700005801882F90E00E94861721EF30E081E079
:1037100068E0A9010E94EB1780915901882F90E081
:103720000E9486170E94971BCF91DF9108950F93F7
:103730001F93DF93CF93CDB7DEB7C556D0400FB6FA
:10374000F894DEBF0FBECDBF0E940E18FE01ED59EA
:10375000FF4F8083FE01ED59FF4F8081282F30E01D
:10376000A6963FAF2EAFA697A6968EAD9FADA69715
:103770008330910509F4B6C1A696EEADFFADA697CC
:10378000E430F10584F4A6962EAD3FADA697213026
:10379000310511F1A6968EAD9FADA69782309105A9
:1037A00009F4DDC000C4A696EEADFFADA697EA30E1
:1037B000F10509F4AEC2A6962EAD3FADA697203115
:1037C000310509F470C3A6968EAD9FADA6978430DF
:1037D000910509F41CC2E7C3FE01E15AFF4F80E0E6
:1037E00090E0AAE7B4E480839183A283B3838E013F
:1037F000055A1F4FFE01E15AFF4F6081718182819E
:10380000938120E030E04AE755E40E941F02DC018A
:10381000CB01F80180839183A283B383FE01E55A33
:10382000FF4F608171818281938120E030E040E828
:103830005FE30E942504882344F4FE01E75AFF4F0A
:1038400081E090E09183808364C0FE01E55AFF4FE0
:10385000608171818281938120E03FEF4FE757E4DF
:103860000E94C50318160CF043C0FE01E15AFF4F39
:10387000608171818281938120E030E040E251E4F7
:103880000E941F02DC01CB018E01075A1F4FBC01B1
:10389000CD010E944900DC01CB01F80191838083B6
:1038A0001FC0FE01E95AFF4F80E991E091838083B8
:1038B000FE01E95AFF4F808191810197F1F7FE01E6
:1038C000E95AFF4F91838083DE01A75ABF4FFE0163
:1038D000E75AFF4F80819181019711969C938E93B7
:1038E000FE01E75AFF4F808191810097D1F627C0F2
:1038F0008E01075A1F4FFE01E55AFF4F608171810B
:10390000828193810E944900DC01CB01F8019183FF
:103910008083DE01AB5ABF4FFE01E75AFF4F808123
:1039200091818D939C93FE01EB5AFF4F8081918191
:103930000197F1F7FE01EB5AFF4F9183808380914D
:1039400056018F5F8093560180E062E00E94A917C4
:1039500080915601882F90E00E948617A1C3FE0136
:10396000EF5AFF4F80E090E0AAE7B4E480839183B0
:10397000A283B3838E01035B1F4FFE01EF5AFF4FFB
:10398000608171818281938120E030E04AE755E4D3
:103990000E941F02DC01CB01F80180839183A28386
:1039A000B383FE01E35BFF4F60817181828193816C
:1039B00020E030E040E85FE30E942504882344F4DF
:1039C000FE01E55BFF4F81E090E09183808364C05E
:1039D000FE01E35BFF4F608171818281938120E072
:1039E0003FEF4FE757E40E94C50318160CF043C0A1
:1039F000FE01EF5AFF4F608171818281938120E047
:103A000030E040E251E40E941F02DC01CB018E0154
:103A1000055B1F4FBC01CD010E944900DC01CB01B9
:103A2000F801918380831FC0FE01E75BFF4F80E9AF
:103A300091E091838083FE01E75BFF4F808191815C
:103A40000197F1F7FE01E75BFF4F91838083DE0171
:103A5000A55BBF4FFE01E55BFF4F80819181019720
:103A600011969C938E93FE01E55BFF4F80819181BF
:103A70000097D1F627C08E01055B1F4FFE01E35B67
:103A8000FF4F60817181828193810E944900DC0136
:103A9000CB01F80191838083DE01A95BBF4FFE015A
:103AA000E55BFF4F808191818D939C93FE01E95BE3
:103AB000FF4F808191810197F1F7FE01E95BFF4F94
:103AC00091838083809157018F5F8093570180E0BD
:103AD0006AE00E94A91780915701882F90E00E9408
:103AE0008617DEC2FE01ED5BFF4F80E090E0AAE7A3
:103AF000B4E480839183A283B3838E01015C1F4F62
:103B0000FE01ED5BFF4F608171818281938120E036
:103B100030E04AE755E40E941F02DC01CB01F801C6
:103B200080839183A283B383FE01FF9660817181BC
:103B30008281938120E030E040E85FE30E94250429
:103B400088232CF481E090E09EAF8DAF46C0FE014B
:103B5000FF96608171818281938120E03FEF4FE782
:103B600057E40E94C503181664F5FE01ED5BFF4F94
:103B7000608171818281938120E030E040E251E4F4
:103B80000E941F02DC01CB01BC01CD010E94490053
:103B9000DC01CB019EAF8DAF0FC080E991E09CAFFF
:103BA0008BAF8BAD9CAD0197F1F79CAF8BAF8DAD1B
:103BB0009EAD01979EAF8DAF8DAD9EAD009769F71D
:103BC00016C0FE01FF9660817181828193810E94FF
:103BD0004900DC01CB019EAF8DAF8DAD9EAD9AAF9C
:103BE00089AF89AD9AAD0197F1F79AAF89AF80910E
:103BF00058018F5F8093580181E062E00E94A9170D
:103C000080915801882F90E00E94861749C280E079
:103C100090E0AAE7B4E48DAB9EABAFABB8AF6DA9B3
:103C20007EA98FA998AD20E030E04AE755E40E94D4
:103C30001F02DC01CB0189AB9AABABABBCAB69A972
:103C40007AA98BA99CA920E030E040E85FE30E94BC
:103C5000250488232CF481E090E098AB8FA73FC027
:103C600069A97AA98BA99CA920E03FEF4FE757E407
:103C70000E94C50318164CF56DA97EA98FA998ADB1
:103C800020E030E040E251E40E941F02DC01CB0161
:103C9000BC01CD010E944900DC01CB0198AB8FA78C
:103CA0000FC080E991E09EA78DA78DA59EA50197E5
:103CB000F1F79EA78DA78FA598A9019798AB8FA71D
:103CC0008FA598A9009769F714C069A97AA98BA94B
:103CD0009CA90E944900DC01CB0198AB8FA78FA55E
:103CE00098A99CA78BA78BA59CA50197F1F79CA7EA
:103CF0008BA7809159018F5F8093590181E06AE021
:103D00000E94A91780915901882F90E00E94861780
:103D1000C7C180E090E0AAE7B4E48FA398A7A9A761
:103D2000BAA76FA178A589A59AA520E030E04AE757
:103D300055E40E941F02DC01CB018BA39CA3ADA321
:103D4000BEA36BA17CA18DA19EA120E030E040E844
:103D50005FE30E94250488232CF481E090E09AA37D
:103D600089A33FC06BA17CA18DA19EA120E03FEF64
:103D70004FE757E40E94C50318164CF56FA178A5CC
:103D800089A59AA520E030E040E251E40E941F029C
:103D9000DC01CB01BC01CD010E944900DC01CB015B
:103DA0009AA389A30FC080E991E098A38F8F8F8D8C
:103DB00098A10197F1F798A38F8F89A19AA10197F4
:103DC0009AA389A389A19AA1009769F714C06BA14E
:103DD0007CA18DA19EA10E944900DC01CB019AA388
:103DE00089A389A19AA19E8F8D8F8D8D9E8D01971C
:103DF000F1F79E8F8D8F0E9404189091560180914B
:103E000057018917A0F490915601809158018917A4
:103E100070F49091560180915901891740F424EF74
:103E200030E080E060E0A9010E94EB1739C1909179
:103E30005701809156018917A0F490915701809104
:103E40005801891770F49091570180915901891791
:103E500040F424E031E080E060E0A9010E94EB172B
:103E60001FC190915801809156018917A0F490913B
:103E7000580180915701891770F4909158018091F1
:103E80005901891740F424E131E080E060E0A901A4
:103E90000E94EB1705C124E231E080E060E0A90157
:103EA0000E94EB17FDC00E94041824E331E080E07B
:103EB00060E0A9010E94EB1780E090E0AAE7B4E47B
:103EC000898F9A8FAB8FBC8F698D7A8D8B8D9C8DEE
:103ED00020E030E04AE755E40E941F02DC01CB01FC
:103EE0008D8B9E8BAF8BB88F6D897E898F89988DD6
:103EF00020E030E040E85FE30E94250488232CF4B2
:103F000081E090E09C8B8B8B3FC06D897E898F898F
:103F1000988D20E03FEF4FE757E40E94C503181645
:103F20004CF5698D7A8D8B8D9C8D20E030E040E2E0
:103F300051E40E941F02DC01CB01BC01CD010E94B3
:103F40004900DC01CB019C8B8B8B0FC080E991E099
:103F50009A8B898B89899A890197F1F79A8B898B3A
:103F60008B899C8901979C8B8B8B8B899C89009773
:103F700069F714C06D897E898F89988D0E944900E8
:103F8000DC01CB019C8B8B8B8B899C89988B8F87D9
:103F90008F8598890197F1F7988B8F870E945E2013
:103FA0000E9486187DC00E94041821E431E080E060
:103FB00060E0A9010E94EB1780E090E8ABEBB4E46D
:103FC0008B879C87AD87BE876B857C858D859E851D
:103FD00020E030E04AE755E40E941F02DC01CB01FB
:103FE0008F839887A987BA876F81788589859A8515
:103FF00020E030E040E85FE30E94250488232CF4B1
:1040000081E090E09E838D833FC06F8178858985B4
:104010009A8520E03FEF4FE757E40E94C50318164A
:104020004CF56B857C858D859E8520E030E040E2F7
:1040300051E40E941F02DC01CB01BC01CD010E94B2
:104040004900DC01CB019E838D830FC080E991E0A4
:104050009C838B838B819C810197F1F79C838B835D
:104060008D819E8101979E838D838D819E81009796
:1040700069F714C06F81788589859A850E94490007
:10408000DC01CB019E838D838D819E819A83898300
:1040900089819A810197F1F79A8389830E94581B3D
:1040A0000E94971BCB59DF4F0FB6F894DEBF0FBEAF
:1040B000CDBFCF91DF911F910F910895DF93CF93E3
:1040C000CDB7DEB710925901809159018093580104
:1040D0008091580180935701809157018093560138
:1040E000CF91DF910895DF93CF93CDB7DEB70E94D4
:1040F0007D180E948618FFCF2F923F924F925F92B9
:104100006F927F928F929F92AF92BF92CF92DF92E7
:10411000EF92FF920F931F93CF93DF93CDB7DEB74C
:10412000CA1BDB0B0FB6F894DEBF0FBECDBF0994E0
:104130002A88398848885F846E847D848C849B8437
:10414000AA84B984C884DF80EE80FD800C811B8145
:10415000AA81B981CE0FD11D0FB6F894DEBF0FBE74
:10416000CDBFED010895FB019F01E8944230C4F0FA
:104170004532B4F44A3029F497FB1EF490958195AA
:104180009F4F642F77270E94E420805D8A330CF0D4
:10419000895D8193CB010097A1F716F45DE25193FD
:1041A0001082C9010C94D420DC01FC01672F7191AD
:1041B0007723E1F7329704C07C916D93708362910D
:1041C000AE17BF07C8F30895AA1BBB1B51E107C078
:1041D000AA1FBB1FA617B70710F0A61BB70B881F97
:1041E000991F5A95A9F780959095BC01CD01089526
:0441F000F894FFCF71
:1041F40020202E2E2E57656C636F6D652E2E2E207B
:104204000020566F74696E67204D616368696E653E
:1042140000536F6D6520496E737472756374696FB2
:104224006E00313A4100323A4200333A4300343AA4
:1042340044005072657373203120436F6E74696E4D
:1042440075650031303A20526573756C74003136EF
:104254003A20726573657400707265737320392037
:104264003A20766F74650070726573732036203A55
:104274002072657065617400413D00423D00433D1C
:1042840000443D0041204953205468652057696E1D
:104294006E65720042204953205468652057696E48
:1042A4006E65720043204953205468652057696E37
:1042B4006E65720044204953205468652057696E26
:1042C4006E65720053797374656D205265736574FD
:1042D4000057726F6E6720496E707574000000009D
:0642E400000000000000D4
:00000001FF
